:020000041000EA
:1000000000B5324B212058609868022188439860DF
:10001000D860186158612E4B002199600221596106
:100020000121F02299502B49196001219960352056
:1000300000F044F80222904214D00621196600F024
:1000400034F8196E01211966002018661A6600F04E
:100050002CF8196E196E196E052000F02FF8012189
:100060000842F9D1002199601B49196000215960AB
:100070001A491B48016001219960EB211966A021F2
:10008000196600F012F800219960164914480160C1
:100090000121996001BC002800D000471248134993
:1000A000086003C880F30888084703B5996A0420EC
:1000B0000142FBD001200142F8D103BD02B5186610
:1000C0001866FFF7F2FF186E186E02BD00000240BE
:1000D000000000180000070000035F00212200005C
:1000E000F4000018222000A00001001008ED00E03C
:1000F00000000000000000000000000074B24E7A12
:1001000000200420F7010010CB010010CD010010E9
:10011000C9010010C9010010C9010010C901001077
:10012000C9010010C9010010C9010010CF01001061
:10013000C9010010C9010010D1010010D301001045
:10014000C1010010C1010010C1010010C101001067
:10015000C1010010C1010010C1010010C101001057
:10016000C1010010C1010010C1010010C101001047
:10017000C1010010C1010010C1010010C101001037
:10018000C1010010C1010010C1010010C101001027
:10019000C1010010C1010010C1010010C101001017
:1001A000C1010010C1010010C1010010C101001007
:1001B000C1010010C1010010C1010010C1010010F7
:1001C000EFF30580103800BE00BE00BE00BE00BECA
:1001D00000BE00BEF2EB8871D09D0010F09D0010B3
:1001E0003802001090A31AE71E481F49086006C88D
:1001F00081F3088810471D480068002801D019487D
:10020000F3E70DA40ECC002902D000F012F8F9E7B4
:100210001749184A002000E001C19142FCD116495B
:100220008847164988471649884700BEFDE701C937
:1002300001C29A42FBD37047F09D0010C00000201D
:100240006011002090AE0010000004200000042087
:1002500090AE0010001004200010042000000000E8
:10026000704700000000000008ED00E0000000D032
:10027000601100208C2000207D530010210300100D
:1002800075530010F8B5C0460448054B10B58342BD
:1002900003D0044B002B00D0984710BD6011002004
:1002A000601100200000000006480749091A8B1061
:1002B000C90FC91810B5491003D0044B002B00D04A
:1002C000984710BD60110020601100200000000060
:1002D00010B5074C2378002B09D1FFF7D5FF054B4C
:1002E000002B02D0044800E000BF0123237010BDA2
:1002F000E814002000000000FC820010054B10B53F
:10030000002B03D00449054800E000BFFFF7CCFFF5
:1003100010BDC04600000000EC140020FC8200105C
:1003200010B58AB005F06CF9FA20C00002F024FA8A
:100330005549564800F0ACFD00F0C4FC002807D039
:10034000534805F037FAFA20800002F015FAFAE770
:10035000504805F02FFA01F03DF9002814DB04A8FD
:1003600000F002FD002817D104A801F0AFF9002821
:100370001AD1494805F01EFA484805F01BFAFA2040
:10038000800002F0F9F9FAE7454805F013FAFA207F
:10039000800002F0F1F9FAE7424805F00BFAFA2082
:1003A000800002F0E9F9FAE7684601F0C1F9002897
:1003B00015D104A9684601F0E7FA3B4805F0FAF9BF
:1003C0003A4805F0F7F901F013FA00280FD0384841
:1003D00005F0F0F9FA20800002F0CEF9FAE735488E
:1003E00005F0E8F9FA20800002F0C6F9FAE7324891
:1003F00005F0E0F96B460599187801F02DFA002810
:1004000007D02E4805F0D6F9FA20800002F0B4F9A2
:10041000FAE72B4805F0CEF96B465A78294B802035
:100420009C466B46059902336144000101F042FA93
:10043000002808D0FA24244805F0BCF9A4002000C4
:1004400002F09AF9FBE7214805F0B4F9204805F0DD
:10045000B1F9204805F0AEF91F4805F0ABF91F4887
:1004600005F0A8F91E4805F0A5F91E4805F0A2F907
:100470001D4805F09FF9FA241C4805F09BF9A400DB
:10048000200002F079F9FBE70083001008830010D8
:100490001C8300104C830010C0830010E883001000
:1004A000788300109C8300101C840010448400108A
:1004B00068840010FC83001084840010AC84001059
:1004C000D084001000F4FFFFF8840010188500109D
:1004D000348500105085001090850010C8850010EC
:1004E000F085001018860010548600108C860010CD
:1004F000F0B54746CE4680B583B06B468146884608
:10050000FF27374E9D1DDC1D012322002900306886
:100510002F7007F0A1FE2378FF2BF5D14B46220068
:1005200029002B703068012307F096FE43461B0E0E
:10053000220029002B703068012307F08DFE43460E
:100540001B0C220029002B703068012307F084FE69
:1005500043461B0A220029002B703068012307F054
:100560007BFE434622002B7029000123306807F0F0
:1005700073FE4B46402B29D0482B1ED0012322006E
:10058000290030682B7007F067FEFF230A27984682
:10059000434622002B7029000123306807F05CFEDF
:1005A0000023E3562078002B02DA013F002FEFD121
:1005B00003B0C0BCB946B046F0BD3F332B7022003B
:1005C00029003068863B07F047FEDEE755332B7085
:1005D000220029003068943B07F03EFED5E7C04674
:1005E0005C200020F0B5C64600B582B06B46FF2700
:1005F000274E9D1DDC1D01232200290030682F702D
:1006000007F02AFE2378FF2BF5D10027883B220034
:1006100029002B703068763B07F01EFE0123220074
:1006200029002F70306807F017FE012322002900EF
:100630002F70306807F010FE0123220029002F7070
:10064000306807F009FE0123220029002F7030686E
:1006500007F002FE012322002B702900306807F00A
:10066000FBFDFF2398460A37434622002B702900E2
:100670000123306807F0F0FD0023E3562078002BBB
:1006800002DA013F002FEFD102B080BCB846F0BDC6
:100690005C200020F0B5C64600B582B06B468046AF
:1006A000FF272B4E9D1DDC1D0123220029003068F1
:1006B0002F7007F0D1FD2378FF2BF5D1963B220058
:1006C00029002B703068683B07F0C6FD43461B0EBF
:1006D000220029002B703068012307F0BDFD43463E
:1006E0001B0C220029002B703068012307F0B4FD99
:1006F00043461B0A220029002B703068012307F0B3
:10070000ABFD4346220029002B703068012307F01F
:10071000A3FD012322002B702900306807F09CFD07
:10072000FF230A279846434622002B702900012305
:10073000306807F091FD0023E3562078002B02DAA1
:10074000013F002FEFD102B080BCB846F0BDC046DB
:100750005C200020F0B5DE46574645464E468846AA
:10076000E0B517001E0083B0DA4B0C9CDA4DDB4974
:100770009A461C60286007F00BFC0121404601F0FE
:1007800065F93800012101F061F90121300001F023
:100790005DF9200001F074F901231900D022A14075
:1007A00012065162514609680A208B40536101F0DC
:1007B000E3FF6B460A26FF279C1D6A4601232100A2
:1007C000286827700732013E07F046FD002EF4D15D
:1007D000012001F0D1FF5246012312689846934050
:1007E000D02212069361BE48914604F059FF0021C1
:1007F0004020FFF77DFE07000100BA4804F0DAFF51
:10080000012F00D02FE1B84804F04AFFD52148203D
:100810004900FFF76DFE80460100B44804F0CAFFAE
:100820004346012B4AD0052B00D029E1FA25B048D8
:1008300004F036FFAF4BB04898461F70AD0004F08F
:100840002FFFAE4E08E0012001F096FF002C19D0DA
:10085000013D002D00D122E1FFF7C4FE0020FFF78B
:1008600019FF64210400280002F074FB0029EAD17A
:100870002A002100300004F09DFF012001F07CFFE0
:10088000002CE5D19E4804F00BFF53461A68012363
:100890009340D022120653619A4804F001FF80234E
:1008A00042469B001381802300205B03536003B00A
:1008B000F0BCBB46B246A946A046F0BD924804F043
:1008C000EFFE0423FF2799466A460123210028688A
:1008D0002770073207F0C0FC6B46DB7936021E43F7
:1008E00001235B429C46E1444B46002BECD1310096
:1008F000864804F05FFFD5233605360D5B009E4227
:1009000000D0D9E0824804F0CBFE824804F0C8FE53
:10091000FFF768FE0700012001F02EFF0020FFF71F
:10092000B9FEB8460126070065239B1B002F1FD088
:100930004346012B52D80A2001F01EFF642E51D0ED
:10094000FFF750FE8046012001F016FF0020FFF760
:10095000A1FE013607000A21300002F0FBFA00294F
:10096000E2D13B00424631006B4804F023FFDBE755
:1009700031006A489B4604F01DFFFA215B4689005E
:10098000C91A674804F016FF00217A20FFF7B0FD6E
:10099000002800D0D6E0FF23042698464F46434661
:1009A0006A462370210001232868073207F054FCAF
:1009B0006B46DB793F02013E1F43002EEFD13B0027
:1009C0005B0005D54B4B98460323424613705CE70A
:1009D000484B984602234246137056E71900514887
:1009E00004F0E8FE504804F05BFEFFF7FBFD804694
:1009F000012001F0C1FE8020C005FFF74BFE01265B
:100A0000070065239B1B002F21D04246012A24D8D2
:100A10000A2001F0B1FE642E00D19DE0FFF7E2FD57
:100A20008046012001F0A8FE8020C005FFF732FEBD
:100A3000013607000A21300002F08CFA0029E0D1CB
:100A40003B0042463100344804F0B4FED9E731009F
:100A500036489B4604F0AEFE8FE7414631489B4640
:100A600004F0A8FE89E7324804F01AFE53464246D5
:100A70001B6801209A4013004A464042536116E722
:100A800041462C4804F096FE2B4804F009FE5346DC
:100A90001B6805209F404B4640425F6107E727489F
:100AA00004F0FEFD53461A6801239340D02204202F
:100AB000120653614042FAE6214804F0F1FD534624
:100AC0001A6801239340D02202201206536140424B
:100AD000EDE6C0464C2000205C200020A0860100EE
:100AE000C8860010E08600103C8700103C8900108A
:100AF000C488001050200020E488001004890010F1
:100B0000208A0010848900105C8700107487001010
:100B1000C0870010EC870010108800103C8800107F
:100B2000C889001070880010EC89001094880010AB
:100B30000887001034890010548900100C8A0010B6
:100B4000A887001053461A6801239340D022012041
:100B5000120653614042AAE6064804F0A1FD53463E
:100B60001A6801239340D0220320120653614042A9
:100B70009DE6C046A889001010B5024B16CB16C0E2
:100B8000002010BD50200020F0B54546DE465746F7
:100B90004E46E0B588460500010083B0404804F0A9
:100BA00009FE404B9A465246012312689340D022D8
:100BB000120693613C4B1B78032B61D03B4A6D02BC
:100BC00029003B4804F0F6FD29005120FFF790FC76
:100BD00004000100374804F0EDFD002C52D1FA2347
:100BE0009B009B466B46FF24334F9D1DDE1D02E09C
:100BF0005B46002B4AD001233200290038682C7054
:100C000007F02AFB0122524294463378E344FE2B3C
:100C1000EED180239B009946023BFF3B4446C144F2
:100C200098465B46002B31D0434632002B7029009A
:100C30000123386807F010FB3378237001344C45EA
:100C4000F2D14346320029002B703868012307F0A7
:100C500003FB434632002B7029000123386807F05C
:100C6000FBFA53461A6801239340D0220020120653
:100C7000536103B0F0BCBB46B246A946A046F0BDE6
:100C80000E4A9DE721000E4804F094FD53461A6871
:100C900001239340D0220120120653614042E8E72D
:100CA000448A00104C20002050200020388A001078
:100CB0005C8A0010788A00105C2000203C8A0010BA
:100CC000908A001010B5052482B01B4804F072FD14
:100CD0000423032202210094184804F06BFD0094C1
:100CE0000423032202211648FFF734FD041E08D115
:100CF000144804F05FFD0122134B1A75200002B066
:100D000010BD0100114804F055FD114804F052FDDA
:100D1000104804F04FFD104804F04CFD0F4804F05B
:100D200049FD0F4804F046FD0E4804F043FD002243
:100D3000054B1A75E2E7C046B48A0010D08A00104D
:100D400000C00340148C0010D41B0020FC8A00104B
:100D50002C8B0010448B0010708B00109C8B0010AB
:100D6000BC8B0010E88B001030B5254C0500A54465
:100D7000244C237D002B39D02000FFF7FDFE0028F6
:100D800037D16946FFF700FF002835D1FF236A46B7
:100D90005B00D35C552B0AD00023A3812B0026CC0B
:100DA00026C326CC26C381239B009D4430BD164B11
:100DB000D35CAA2BF0D101236A46A381C233FF334F
:100DC000D35CEE2B0FD0E9236A465B00D35CEE2B9D
:100DD00009D0F1235B00D35CEE2B04D0F9235B0038
:100DE000D35CEE2BDAD101236373D7E701204042B5
:100DF000D9E702204042D6E703204042D3E7C0466D
:100E0000FCFDFFFFD41B0020FF01000030B50400F3
:100E100083B0164804F0CEFC2378012B22D0022B9D
:100E20001ED0032B20D01249124804F0C3FC656881
:100E3000280002F08DFB81230022DB0502F01DFB60
:100E400000220D4B02F019FB009502000B000B482D
:100E500004F0B0FC21890A4804F0ACFC03B030BDBA
:100E60000849E1E70849DFE70849DDE7488C001059
:100E7000408C0010648C00100000B03E708C00109C
:100E8000908C00103C8C0010388C00103C8A0010B4
:100E900070B505000C000A4804F08CFC29000948D4
:100EA00004F088FC2100084804F084FC074A084943
:100EB000084804F07FFC084804F07CFC70BDC04684
:100EC000A88C0010FC8C0010148D0010248D0010D4
:100ED000308D00103C8D00104C8D0010F0B5704C22
:100EE0000E00A54469461500FFF74EFE041E00D013
:100EF000CEE0FF236A465B00D35C552B1DD06B46CA
:100F000008226849D81C07F0DDF8002846D03823AD
:100F10006A46D35C013D532B03D11A3BD35CEF2BC4
:100F200043D02A003000604907F01EF900237355B2
:100F3000200081239B009D44F0BD5C4BD35CAA2B19
:100F4000DDD1743B6B445A491A888A424CD05849C7
:100F50001A888A422FD06A4652215218544B12885E
:100F60009A42CCD16A4602315218524B12889A42A8
:100F7000C5D16A46023152184F4B12889A42BED1EF
:100F80006A46023152184D4B12889A42B7D1013D40
:100F90002A0030004A4907F0E7F8C7E7013D2A0078
:100FA0003000484907F0E0F8C0E72A003000464921
:100FB00007F0DAF8BAE7454958888842CBD1444966
:100FC00098888842C7D13D48D9888142C3D16B46B1
:100FD00052201B181B88934245D0013D2A00300047
:100FE0003C4907F0C1F8A1E7384958888842AED19A
:100FF000314998888842AAD13049DF888F42A6D1EA
:1010000069465227C919098891420AD0284A198885
:1010100091421BD0013D2A0030002F4907F0A4F86F
:1010200084E769460237C919224A09889142EDD1FD
:101030006A465621521812888242E7D169465820E2
:1010400009181E4A09889142E0D1A0E71F4A598831
:101050009142DFD11E4A99889142DBD1174ADB8841
:101060009342D7D1B9E76A4602301218114B128861
:101070009A42B2D16A46023012180F4B12889A4235
:10108000ABD16B4658229B181B888B42A5D17EE7BB
:101090000124300011496A1E07F066F8644247E7F0
:1010A000FCFDFFFFE88D0010408C0010FF010000E8
:1010B0004641000054330000322000002020000090
:1010C000D08D0010F48D0010FC8D00105431000004
:1010D00036200000D88D0010E08D0010A08D00108B
:1010E000F0B5DE4657464E464546E0B56E4C8B465B
:1010F000A544009002A90020FFF746FD071E00D07E
:10110000CEE0FF2302AA5B00D35C552B00D0A4E005
:10111000664BD35CAA2B00D09FE0654804F04AFBE5
:10112000DF2402AB9C460125B94664006444D945DE
:101130001DD22779002F16D0637A227A1B02A67A55
:101140001A43E37A360416431B061E430BD0627B18
:10115000217B1202A37B1143E27B1B040B4312068B
:101160001A4390460ED101351034052DDFD14F467C
:10117000380083239B009D44F0BCBB46B246A94681
:10118000A046F0BD4B464946DB005B1A00991B01A7
:101190008A469A4453464146227899601F705E60A1
:1011A0001300803B5146019250465A4253416C22F3
:1011B0000C308B542B0040213E4A04F09DF84C210A
:1011C0008C46E244202251463000FFF787FE29007A
:1011D000394804F0EFFA019B802B0ED01900374AF2
:1011E000374804F0E7FA3900364804F0E3FA0E2FE6
:1011F00006D8354BBF00DB599F461900334AEFE74D
:10120000832F49D0EE2F2BD1314804F0D3FA314847
:1012100004F0D0FA3100304804F0CCFA404602F035
:1012200097F981230022DB0502F027F900222B4BDE
:1012300002F023F90B0002004146294804F0BAFAF3
:101240005146284804F0B6FA01239C460135E14492
:101250001034052D00D06AE789E702277F4287E72F
:10126000214804F0A7FAD2E7204804F0A3FACEE719
:101270001F4804F09FFACAE71E4804F09BFAC6E72D
:101280001D4804F097FAC2E71C4804F093FABEE741
:101290001B4804F08FFABAE71A4804F08BFAB6E755
:1012A00001277F4264E7C046F4FDFFFFFF01000015
:1012B000248E0010448E0010548E0010088E0010F2
:1012C000648E00107C8E0010588F0010188E001055
:1012D000EC8E0010408F0010108F00100000B03E08
:1012E000248F0010448F0010048F0010D08E001047
:1012F000C08E0010B48E0010A88E0010988E0010C2
:101300008C8E0010E08E0010F0B5DE4657464E463B
:101310004546E0B5A04C0F00A54407909F4804F057
:1013200049FA012012A9FFF72FFC002800D02FE175
:101330009B4B129A9A420BD002235B429B46584623
:10134000984B9D44F0BCBB46B246A946A046F0BDB2
:10135000954B139A9A42EFD1269C249D279E2100FB
:101360009248069604F026FA2900914804F022FAE1
:10137000280092A9FFF708FC8346002800D003E16B
:1013800080203100800001F00DFE8046A04200D98F
:10139000A0464346002BD2D0002FD0D00122924647
:1013A0000022B946150092AC37E06378002B37D1A4
:1013B000A378002B34D1E378002B31D12379002B93
:1013C0002ED16379002B2BD1A379002B28D1E3797F
:1013D000002B25D1237A002B22D1637A002B1FD139
:1013E000A37A002B1CD1E37A002B19D1237B002B8D
:1013F00016D1637B002B13D1A37B002B10D1E37B91
:10140000002B0DD1C2459AD2069B5D469C46012316
:1014100064449C46E244CB4591D22378002BC4D04F
:101420002023E15C0133E25C0133120211432322E9
:10143000E35CA25C1B040B4312061A432423E15C09
:1014400001330292E25C0133120211432722E35C72
:10145000A25C1B040B4312061A432823E15C0133F0
:101460000392E25C0133120211432B22E35CA25C83
:101470001B040B4312061A432C23E15C0133049234
:10148000E25C0133120211432F22E35CA25C1B04D5
:101490000B4312061A4300230021059209A82122BA
:1014A0000893260002F05EFC23002000383308A9D0
:1014B0007E30803605E0834207D002330131B342EB
:1014C00003D01A780A70002AF5D1EB005D1B079B48
:1014D0002D019C460299039AEE2365442B70049BD0
:1014E000002201335B1AAB606C232E006960EA5462
:1014F00006AB1B7A0F000C3608A9002B00D12D4932
:101500003F2230004C3506F02FFE20222900380003
:10151000FFF7E4FC5146284804F04CF9002731005D
:101520000126264804F046F9029A039B244804F059
:1015300041F9049A059B234804F03CF9049A059B61
:1015400092197B4116001F00029A039BB61A9F4115
:101550003000390002F048F881230022DB0501F059
:101560008CFF0022184B01F088FF3B000090019196
:101570003200164804F01EF92900154804F01AF943
:1015800001239C46E3443DE703235B429B46D6E6AA
:1015900001235B429B46D2E6B4FBFFFFA08F001005
:1015A000454649204C04000050415254CC8F001055
:1015B000E88F0010948F00101090001024900010FD
:1015C00034900010489000100000B03E5C90001075
:1015D000448F0010F0B5CE46474680B5324CA54446
:1015E00002A8FFF7C1FB051E56D1304804F058F899
:1015F00002A8FFF70BFC6B465B7D002B42D16B46CC
:101600001B7D002B2DD02A4808AC04F049F8082196
:101610002000FFF765FD80464146264804F0CAF8E1
:101620004346002B26DD244B9946A06801F090FF2D
:1016300081230022DB0501F020FF27002600002285
:101640001E4B01F01AFF4C370C36009001913A0006
:1016500031004846013504F0ADF87034A845E4D1B6
:1016600008E0174804F01CF80021124804F0A2F822
:10167000002398464046E9239B009D44C0BCB946E0
:10168000B046F0BD0F4808AC04F00AF8082120006D
:10169000FFF73AFE8046BFE70B4804F001F801234C
:1016A0005B429846E6E7C0465CFCFFFFA490001052
:1016B000E890001028910010449100100000B03E06
:1016C00008910010C89000108090001010B5040020
:1016D000104803F0E5FF104803F0E2FF606801F0F6
:1016E00037FF81230022DB0501F0C7FE00220B4BF0
:1016F00001F0C3FE02000B00094804F05BF8094842
:1017000003F0CEFF084804F055F8084803F0C8FF7E
:10171000002010BD589100108C9100100000B03EC8
:10172000C4910010DC91001010920010449200103F
:1017300070B502230026851C07221D49040006708F
:101740004370280002F014FB0123E673A3731948C9
:1017500003F0A6FF184803F0A3FF184803F0A0FF0A
:10176000174803F09DFF174804F024F8164803F0CB
:1017700097FF164803F094FF154803F091FF1548B2
:1017800003F08EFF144803F08BFF144803F088FF2A
:10179000134804F00FF8134803F082FF29001248A1
:1017A00004F008F82900114804F004F8002070BD86
:1017B000789200108092001098920010B892001059
:1017C000E09200100093001010930010249300107A
:1017D000409300106493001084930010AC930010A9
:1017E000CC930010DC930010F093001008940010CC
:1017F00070B5134886B003F053FF6846FFF7B4FA9C
:10180000061E1AD100240F4803F04AFF0E4803F0C9
:1018100047FF0E4803F044FF0D4D0134210028001E
:1018200003F0C8FF0A2000F0A7FF402CF5D10948BB
:1018300003F036FF300006B070BD01267642F9E7AE
:1018400020940010349400106494001090940010C0
:10185000B8940010D094001010B5002814D00128BE
:1018600006D00D490D4803F0A5FF0120404210BDF0
:101870000B490A4803F09EFF0A4803F011FF0A488B
:1018800003F00EFF0020F2E70849044803F092FF3E
:10189000074803F005FFF2E7408C00101495001094
:1018A0007095001074950010EC94001010950010C5
:1018B0003895001070B5060082B0080014001D00B5
:1018C00001F046FE81230022DB0501F0D6FD002257
:1018D000204B01F0D2FD02000B00032C20D81E4942
:1018E000A00041581D480091310003F063FF29001A
:1018F0001B4803F05FFF022C1FD0012C27D0032CC4
:1019000018D1184803F0CCFE174803F0C9FE174859
:1019100003F0C6FE164803F0C3FE002002B070BDFF
:1019200014490E480091310003F044FF29000C488F
:1019300003F040FF01204042F0E70F4803F0B0FE03
:101940000E4803F0ADFE0E4803F0AAFEE2E70D4894
:10195000F4E7C0460000B03E74970010AC9500104C
:10196000E09500107896001098960010C096001030
:10197000E4960010408C0010F495001014960010AE
:101980003C9600105896001070B50D0004002148D8
:1019900003F086FE686801F0DBFD81230022DB0591
:1019A00001F06BFD00221C4B01F067FD02000B00F3
:1019B0001A4803F0FFFE2378002B28D0012B1BD1FF
:1019C0001749184803F0F6FE6378032B1BD8164A14
:1019D0009B009958154803F0EDFE1548A11C03F033
:1019E000E9FEA37B002B10D11249134803F0E2FE5D
:1019F000124803F055FE70BD11490A4803F0DAFEA3
:101A00006378032BE3D90E49E4E70E49EDE70E496D
:101A1000D7E7C0460C9700100000B03E2497001096
:101A200070950010389700107497001050970010B0
:101A3000E09500100897001060970010F8910010D2
:101A4000408C0010049700101095001010B5402431
:101A5000084A83009A181268C0005440C0222240ED
:101A6000054CA44663441A60044B9C4660444160A4
:101A700010BDC04604C0014004D0014000400140F8
:101A80000123D02283404021120693629361094AC8
:101A900083009A181268C0005140C0220A400649CB
:101AA0008C4663441A60054B9C46052360444360A2
:101AB0007047C04604C0014004D0014000400140CE
:101AC0008023DB051868000F7047C0460FB400B5CF
:101AD000084883B003F0E4FD049B002B07D005A960
:101AE0001800019103F02CFC034803F0D9FD0120FC
:101AF00003F03EFC849700103497001070B5EFF3AC
:101B0000108C72B60D4D2B68002BFCD0BFF35F8F8D
:101B10000724CB08C618C05C01230C40A3401C005E
:101B20000440034207D103433370BFF35F8F2C603F
:101B30008CF3108870BD1000FFF7C8FF2C0100D097
:101B4000F8B54746CE46884680B5EFF3108C72B69E
:101B5000214D2C68002CFCD0BFF35F8F9A422CD80B
:101B6000D4080727055D061901241740BC402C4204
:101B70001FD007210127894609E0D408055D061911
:101B80004C4639001440A1400C00294211D00132CA
:101B90009342F2D201204042BFF35F8F00220E4BEE
:101BA0001A608CF3108800280FDBC0BCB946B04621
:101BB000F8BD2C4310003470EEE7BFF35F8F0023B5
:101BC0002B608CF31088012040424346002BECD060
:101BD0000898FFF77BFFC0462C0100D0044A10781C
:101BE000431CDBB2172B00D9102313707047C0467B
:101BF0009810002000B5054B83B001000093182217
:101C00001F230348FFF79CFF03B000BD949700100B
:101C1000A41B00200021044B044ABFF35F8F02C3C2
:101C20009342FAD17047C046000100D0800100D035
:101C3000054B064A1360064A136053609360D360F5
:101C400013615361936170478080808000E400E0FD
:101C500004E400E01F2318401E3B8340002905D008
:101C6000C021044A49005350136070478022014943
:101C70008B50FAE700E100E001228240034B1B6831
:101C800013405A1E9341D8B27047C04600E100E0AD
:101C900001238340014A13607047C04600E200E020
:101CA000064B10309B688000C358054A00209B1AE1
:101CB0002F229A424041C0B27047C04600ED00E07A
:101CC0009C10002070B50D00EFF3108672B60F4A1D
:101CD0001368002BFCD0BFF35F8F0D4B10309B6857
:101CE00084001B590B4A934203D09D4201D000F05F
:101CF000FBFF074B9B681D51BFF35F8FBFF35F8FE7
:101D00000022024B1A6086F3108870BD240100D0B7
:101D100000ED00E0C1010010F0B557464E46DE462A
:101D20004546E0B585B0060002911700EFF3108B31
:101D300072B6674A1368002BFCD0BFF35F8F002593
:101D4000644B5D579A46002D00DAA4E06B00624CAC
:101D500003935B199B009846A146C1444B465246EB
:101D60009B79103613705D4BB2009B6801929958B5
:101D70000B1B2F2B34D95A4B994200D0A4E0039B64
:101D8000584A9C46584B6544AD0063534346023362
:101D90006519E418554B0121043B1B1B1B055B0D0A
:101DA00013436B80524BEF71AB80FF23AB71029BEF
:101DB000AB604B460B431900484B019A9B68995006
:101DC000BFF35F8FBFF35F8F0022414B1A608BF32D
:101DD000108805B0F0BCBB46B246A946A046F0BD8F
:101DE00001200A008243D379BB422FD845464E4694
:101DF000130040491B1B5B415943090D3A4B635388
:101E00003A4B02356519043B5B1B1B05354D5B0DD9
:101E10002B4373800426B446E0444444131F1B1B29
:101E20004C46A17102991B05A16049465B0D2B43ED
:101E3000A380314BE77101431360BDE75800C01820
:101E400080002018C679BE422BD902000623D35643
:101E5000002BF3DA101D824628488046042676427D
:101E6000B446E14450464E46361A3005400D82468F
:101E700056461C48957106439680039A94466544DD
:101E80001D4AAD00641922604246A371029BA280E4
:101E9000E771A36090E700F027FF002553465D57E8
:101EA00054E7101D82469088400500158446404640
:101EB000D444664604302018301AE0260005400D50
:101EC000360230438046C9E700F00EFF57E7C046B0
:101ED000240100D0852000209C10002000ED00E0AF
:101EE000C101001000E0FFFF00A1FFFFCC100020A7
:101EF00001BDFFFFAAAA00000148804701BD000004
:101F000070B501240443EFF30581EFF3108C72B632
:101F1000214A1368002BFCD0BFF35F8F1F4B0500D5
:101F20001F4AED1A6D416A43120D1E4D8900AE68BD
:101F300052B27658A6421CD00621595691421CD066
:101F400012215956914222D01E215956914220D039
:101F50002A2159560324914210D0134B19781A7034
:101F60008171BFF35F8F00220B4B1A608CF31088D6
:101F700070BDAB680D4C5C50EFE70024610009199F
:101F800089005B18FF21997109499980E5E70124CF
:101F9000F4E70224F2E7C046240100D09C100020A0
:101FA000AAAA000000ED00E085200020C101001079
:101FB00001BDFFFF00B5074B83B001000093002275
:101FC00005230548FFF7BCFD002801DB1F23181A75
:101FD00003B000BDB097001089200020024B9C4642
:101FE000614489000160704740000034F8B5134D2A
:101FF000134E2C00FF27B5421ED22368002B0FD0B2
:10200000FFF7ECFD01002800FFF7E8FFA780BFF312
:102010005F8F0834B4420FD223682500002BEFD124
:10202000FFF7DCFD01002800FFF7D8FF2771BFF3A1
:102030005F8F0834B442EFD3F8BDC046581100207A
:102040006011002010B50400FFF7C8FD010020005A
:10205000FFF7C4FFFF232371BFF35F8F10BDC0469E
:1020600010B504000120FFF7C5FD044B9C466044F9
:1020700080002060BFF35F8F10BDC0464000003479
:10208000034B9C46614489000160BFF35F8F70473A
:10209000400000340A4B1968EFF3108072B60A68EA
:1020A000002AFCD0BFF35F8F1B68BFF35F8F002255
:1020B0001A6080F3108840BF002000217047C0469E
:1020C00064200020F0B5DE4657464E464546E0B552
:1020D00085B0EFF30582032313409A0011000392A9
:1020E000B64A5258904601229A409146B44B1A6023
:1020F0004B46B4484363434608229B5E9A46002BF6
:102100003DDA43469B881BB2002B00DBA1E043462F
:102110009B79002B00D0F3E0434608241C5F002C81
:1021200023DB42465269630094461B19DB0063447B
:102130009C68DD68631C00D10FE1A24803998446C6
:102140006144826A0B69A61A9B1A9E4215D34A46BD
:10215000036A1A4211D09B4800F0B0FB241A8D414B
:10216000002D02DCC4D1002CC2D040BF05B0F0BCB1
:10217000BB46B246A946A046F0BD0C61EBE742461D
:1021800052695B0093465344DB009B445B469E6868
:10219000DF6800F093FB801BB9410029B1DB002F01
:1021A00000DAE5E05B46884A1B69934200D1D8E03B
:1021B00041465A460820085E5288000410435A4699
:1021C0005169984704000D0023002B4300D1CFE054
:1021D000002D00DBE8E0361BAF4134003D005B46DC
:1021E0009C60DD600021595E002900DA89E74346E2
:1021F0005B6922009C462B0048004018C0006044E8
:102200008668C768921BBB41002B00DA79E743461A
:10221000664602000094019519810CE07B00DB19F1
:10222000DB00F318009801999C68DD68001BA94148
:10223000002904DB1A000023D75E002FEEDA5B468C
:102240001F805346138043469B881BB2002B00DA45
:102250005DE743461A69EFF3108172B61368002BED
:10226000FCD0BFF35F8F43469B8842461BB29A4621
:1022700001235B4293801369BFF35F8F00221A60D2
:1022800081F310885346002B00DA40E743465B6930
:102290009C46082343449B4653465F0043465744AD
:1022A000FF0008229A5E67445E46BC68FD68002A0B
:1022B00019DB3B000094019567469C4604E01E0034
:1022C0000023F25E002A0BDB0098019953009B1853
:1022D000DB00FB189C68DD68001BA9410029EEDAD1
:1022E0006346BC461F005346338000217B5E3A8024
:1022F0009A46002BD0DA43469B79002B00D10BE79E
:10230000002342469371434646460821595E0836EB
:102310004B1C00D129E747468C46556902E0060070
:102320004B1C17D04B005B18DB00E8180A00E95E75
:1023300043881BB2002BF2DA01235B42DC17836077
:10234000C4606245ECD031803B89944603803A8179
:102350004B1CE7D1B8466446E1E66B1C00D0ECE6C6
:10236000F9E65B465C69200023699847002821D183
:102370005B4642461B8813811269EFF3108372B6E5
:1023800011680029FCD0BFF35F8F4246594652883E
:102390000A804246514651801269BFF35F8F002187
:1023A000116083F31088ACE6064800F087FA241821
:1023B0004D4114E76568246806E7C04634200020D4
:1023C0003C70054000400540C520001070B52E4C03
:1023D0002569002D04D00A212C48FFF7FFFD70BDB0
:1023E0002B4E0321300000F05FFAE660FFF7F6FBAA
:1023F000284B03229C46D02322701B061B68012118
:102400006370254B6044A3600F238000206102208D
:10241000638063694942A18019800231198647317E
:102420001D83585218315A5275325C3999521832FC
:1024300001319952183201319952183201319952B1
:10244000083518329D520231183299521832013132
:102450009952183201319952183201319952183279
:10246000013199521832013199520C4B0C49DC6000
:1024700001303562FFF726FC01210320FFF7EAFB5C
:10248000084B1D60A7E7C046E41000206420002030
:102490000040054040000034FFFF100034200020C1
:1024A000C52000103860054000487047E410002047
:1024B000F8B51F0008AB1B7804001600002B07D1ED
:1024C00000F004FA32003B00121A8B41002B4CDB67
:1024D0002269EFF3108072B61368002BFCD0BFF3B3
:1024E0005F8F62690223E15E94464B005B18DB005C
:1024F0006344002901DB1A8862802269BFF35F8F81
:102500000025156080F31088002930DB069A9E6054
:10251000DF601A61079A5A615A8801325204520CDC
:10252000161C002A1FD0B0B20A045E801043266930
:10253000EFF3108572B63268002AFCD0BFF35F8FCC
:10254000A2881A80A1802369BFF35F8F00221A60DE
:1025500085F31088074923788C4601329A40E36856
:1025600063441A60F8BD0126DDE70020FAE7012088
:102570004042F7E73C20000070B5C646010000B5B8
:102580000469EFF3108C72B620680028FCD0BFF30A
:102590005F8F02200D5E48696C0080466419E4007C
:1025A0004444002D01DB208848800869BFF35F8F19
:1025B000002606608CF31088002D30DBE360638812
:1025C0000598013320615B0406985B0CA260606192
:1025D0001A1C002B21D090B22B04628018430A6988
:1025E000EFF3108672B61368002BFCD0BFF35F8F39
:1025F0008B8823808D800B69BFF35F8F00221A6068
:1026000086F310880B7801329A40CB6805498C46D6
:1026100063441A6040BCB04670BD0122DBE7012074
:102620004042F7E73C20000010B543890A1493426A
:1026300033DD53009B184269DB0094460469634410
:10264000EFF3108C72B62268002AFCD0BFF35F8FC4
:102650005A88090494B2090C8A4208D00369BFF36E
:102660005F8F00221A608CF31088002010BD80223A
:10267000120214435C80012302698371BFF35F8FF0
:10268000002111608CF31088054902788C46934034
:10269000C268012062441360E8E70020E6E7C04614
:1026A0003C20000040787047F0B504000D0006267D
:1026B0007642F717C64636196F4100B582B08F4291
:1026C00014D811D000F002F932003B00121A8B41ED
:1026D000002B15DC002B44D02000290000F000F96D
:1026E00002B080BCB846F0BD8642EBD90026002778
:1026F00000F0ECF832003B00121A8B41002BE9DDB0
:1027000000F0E4F832003B00121A8B41002B0ADB88
:1027100000230193144B3200009314483B00FFF751
:102720002BFF0028D8DBB0460026BC46104A114FCC
:102730007B6A9C4504D8B96A8845CDD99C45CBD1E4
:102740001168EFF3108072B60B68002BFCD0BFF35A
:102750005F8F1368BFF35F8F1E6080F3108820BF08
:10276000E6E7002AB8D0CBE795200010E41000205F
:10277000642000200040054070B5060000F0A6F877
:10278000FA2204000D00002330000021920001F025
:102790007FFA00196941002902DBFFF785FF70BD50
:1027A000012001494042F8E7FFFFFF7FF0B5CE4628
:1027B000474680B504000D0083B0EFF30587002F76
:1027C0000DD0364A0020536A8B4203D3926A0130FF
:1027D000A24250D303B0C0BCB946B046F0BD304BA6
:1027E0009846DB689946434648461E7800F066F8EE
:1027F0000B00494602000436B600715820008E1ABC
:102800002900801A99418F4211DC0ED020BF234A43
:102810000020536AAB42DDD3926A0130A242D9D282
:10282000E81A421E9041C0B2D4E78642EED900F0C9
:102830004DF822002B00121A8B41002B20DB0023C5
:102840000193184B2200009340462B00FFF794FEA3
:10285000011E15DD114B2E005A6A95421CD89B6A49
:10286000A34217D34046FFF7DFFE0C4A0020536A0D
:102870009E42AFD8D0E7581A421E9041C0B2A9E795
:10288000064A0020536AAB42A4D3926A0120A242B6
:10289000A0D2C5E79542E5D120BFE3E7004005405F
:1028A000E41000209520001010B5024A0248FFF7FE
:1028B00025F910BDCC970010A81B00200300416A29
:1028C0000A00986A596A8A42FAD17047034B596ADA
:1028D0000A00986A596A9142FAD17047004005404F
:1028E000064A536A9942FCD807D1044B02E05A6A5F
:1028F000914202D19A6A8242F9D370470040054062
:10290000F8B5DE464E4657464546E0B58B460500CF
:102910000A991800160000F045FB0A9B6C001F0284
:10292000324B64199C46A4006444636881469F420C
:1029300000D967602B1FDBB29846012B30D9C0232A
:1029400080229B01E31812011A60294BAD005959EE
:102950009A4600291BD1226876017240E026802326
:10296000164042465B01E3181E60012A30D98023DD
:1029700080229B01E31812011A6053464A466760A1
:102980005A51F0BCBB46B246A946A046F8BD5869AC
:1029900000F008FB431C5800C0180338FDD2DAE7EA
:1029A0005B46012BCBD1C02303229B01E3181A60A5
:1029B000023AA3681A42FCD0E0232268760156400E
:1029C0001E4080230A4A5B019246E3181E60AD0058
:1029D0005A462168514003220A401A6001225B4690
:1029E0009A40A3681A42FCD0C1E7C046008000406C
:1029F000AC1B0020F0B546464F46D646C0B51F007A
:102A0000344B44009C462418A40064446368884600
:102A10001600FF2B02D880235B006360031FDBB22C
:102A20009A46012B30D9C02380229B01E318120162
:102A30001A60294B85005959994600291BD12268F3
:102A400076017240E0268023164052465B01E3186F
:102A50001E60012A30D9802380229B01E3181201D5
:102A60001A6080235B0063604B465F51E0BCBA464E
:102A7000B146A846F0BD586900F094FA431C5800CE
:102A8000C0180338FDD2DAE74346012BCBD1C0236F
:102A900003229B01E3181A60023AA3681A42FCD091
:102AA000E0232268760156401E4080230A4A5B01DB
:102AB0009146E3181E60850042462168514003227A
:102AC0000A401A60012342469340A2681342FCD098
:102AD000C1E7C04600800040AC1B0020014B8000D5
:102AE000C0587047AC1B0020F8B5040020481D00FA
:102AF00017000E0000F056FA0100380000F052FAFC
:102B0000069B29041B0319432368002B1EDB194B6A
:102B1000194DE21853425A4180235B019C4612032F
:102B2000164B62441A60164B1A6017002B689F43BD
:102B3000FBD1144B2660E2182123A06013602368A8
:102B4000002BFCDA0823E1601360F8BD3F23226804
:102B50001340B342DBD1A3681B051B0D8342D6D1C2
:102B6000EE22E368D20213408B42D0D1EDE7C0469B
:102B7000001BB7000040FDBF08C0004000E000405F
:102B800000F000400430000010B5140080221B4B00
:102B9000D2051A6000281AD00123194A1843194B8C
:102BA000DA61194A42401A62596298628022134BD4
:102BB000D2051A601549164A1160E022D2041A6043
:102BC000002C07D18022134B12061A6010BD0D4B4A
:102BD000D861EBE763011B1B9A00802312191201D5
:102BE0005B049A4200D30C4A0C4B1A60054B5A60A6
:102BF0008022084BD2051A60E8E7C04600B00540C5
:102C0000D3C007B0008005402D3FF84FFCFF010006
:102C10000820014000A00540FFFFFF002420002005
:102C20008023024A9B000B43D3627047008005401B
:102C3000142310B50100188804331B88984710BD71
:102C4000162310B50100188802331B88984710BD61
:102C5000F8B54746CE4680B50F1E19D014239946C5
:102C6000043304000025012698464B461888434645
:102C700021681B88984701C4431E98410135404292
:102C80000640AF42F1D13000C0BCB946B046F8BDF5
:102C90000126F8E7142370B50400188804331B8854
:102CA0000D000549984703000020002C01DB01308E
:102CB000A04029009847C04655420000AA23064A72
:102CC0001B0113608D235B00D3600449044B196022
:102CD0005368002BFCDA70470040024000B0FA0055
:102CE000006002407047C04610B50148FEF7EEFE96
:102CF000F097001070B5074D074EB54209D2002479
:102D0000013E761BB60808CD984723000134B34234
:102D1000F9D170BDB8820010F4820010054B064A4C
:102D200006491A60064A074B1A6010000B68984360
:102D3000FBD1704700E00040BFCDFBFE08C0004063
:102D4000FE7F3C0000F00040044BDB6C002B03D105
:102D50008022034BD2021A607047C0460000115017
:102D60004C201150044A054B1A60054A1368DB01D8
:102D70008033FBD17047C046FFFFFF0100F00040E9
:102D800008C000404022034B9A675A671A67DA6608
:102D90007047C04600F0014010B5FEF73BFF10BD84
:102DA000F8B52D492D4C2E4D641AA6103200302E48
:102DB00000D930222800920000F0DAFFBC2C41D864
:102DC0000123711C08009C46264A30293DD92F2733
:102DD0002C196407E30FBF1B052F19D9302917D809
:102DE000002B36D0B1006A506146CC1AF3189B0014
:102DF0006108EB18C900C9181A605A6008338B4281
:102E0000FAD101232100994346188C421AD0711C33
:102E1000B300EA50302915D089006A50B31C2E2E19
:102E200010D09B00EA50F31C2D2E0BD09B00EA50D3
:102E3000331D2C2E06D09B00EA50731D2B2E01D083
:102E40009B00EA50084B9D60F8BD2F339B1B9C46AE
:102E5000BDE73000C8E7C04600010010C001001007
:102E600000000020C101001000ED00E0002310B5BB
:102E7000294C82B0A367FFF721FF0122274B1A607C
:102E8000636C012BFCD10322254B1A60224A936B01
:102E9000012BFCD1013300930121224A2248043343
:102EA000FFF722FE052301210093204A2048FFF767
:102EB0001BFE0022022104201E4BFFF79BFD002277
:102EC000012105201C4BFFF795FD00220021072062
:102ED0001A4BFFF78FFD002200210820174BFFF748
:102EE00089FD8023DB000093002200210920134B81
:102EF000FFF706FD0022104B00210620FFF77AFDA8
:102F00000420FFF7EBFD0E4900F04CF80100002013
:102F1000FFF786FE02B010BD008000403CB00040CC
:102F200030B00040002F685900800240008C864776
:102F300000C00240001BB70040597307006CDC0260
:102F400040420F0001480421014B184700110020A6
:102F5000512C0010124A936F9B0815D29066D166CF
:102F6000002905D0FFE7FFE7FFE7516F106F7047BB
:102F700004B580210906C2175140002800D0C8437B
:102F800005F04AF9002104BDF0B5146E556E576F77
:102F9000166FFFF7E3FF1466556657671667F0BDB7
:102FA000000000D0114A936F9B0813D2106651663F
:102FB000002905D0FFE7FFE7FFE7516F106F70476B
:102FC00004B5002801D00020C04305F025F90021F8
:102FD00004BDC046F0B5146E556E576F166FFFF7FF
:102FE000E5FF1466556657671667F0BD000000D010
:102FF00094464A4A926F9208624601D228E0C0463F
:10300000F0B5464E346E756E776F366F00F020F86F
:103010009446424A14665566576716676246F0BD85
:1030200094463E4A926F9208624601D254E0C046EE
:10303000F0B53A4E346E756E776F366F00F04CF81F
:103040009446364A14665566576716676246F0BD61
:10305000002B24DB11D000293EDA00B5C9434042E1
:1030600000D1013100F038F8C943404200D10131AC
:10307000DB43524200D1013300BD002AEBD10028CE
:1030800001D1002905D00020C90FC90701D1C043D3
:10309000410800B505F0B0F80022002300BD00B5DE
:1030A00000290ADBDB43524200D1013300F014F85F
:1030B000C943404200D1013100BDC943404200D163
:1030C0000131DB43524200D1013300F005F8DB430C
:1030D000524200D1013300BD002923D1002B18D169
:1030E000002A0CD0BC460D4F38667A6600210023BA
:1030F000FFE7FFE7FFE77A6F386F67467047002802
:1031000001D00748010000B505F076F80022002341
:1031100000BD02000B00002000217047000000D01D
:10312000FFFFFFFF002B00D0BFE0130C28D1002AC7
:10313000E7D080B4114F39667A66FFE7FFE730B415
:10314000040C7B6F396F1B0423433B667A66FFE7F1
:10315000FFE7FFE7C04684B27B6F3D6F1B0423434C
:103160003B667A66FFE7FFE7C04600232C042D0C80
:103170007A6F386F00196941B0BC7047000000D009
:10318000F0B594460025140E01D112020835140F33
:1031900001D112010435940F01D192000235D40FF0
:1031A00001D152000135D40B0134254F7C66254CEA
:1031B0003C660E0C93B2FFE7FFE7FFE73C6F664308
:1031C000360C7703BE467343DF0B5B04C01AB9416C
:1031D000130C7343DB18C91ACE086643360CB64489
:1031E00093B273431F0F1B01C01AB941130C7343F1
:1031F0001F0B1B05C01AB941860D8F023E43664363
:10320000360C092D24DB520A7243801A7703460AD2
:103210006643360C16235B1BDE40DF40BF19644655
:103220006643821B7046043506330100D940A8402E
:10323000C01900D30131A24206D20023F0BD000024
:10324000000000D0FFFFFFFF121B0130F3D3F1E7B6
:1032500009277F1BFE406446A2B27243801A00D247
:103260000139220C7243130C1204821A99410B008B
:103270007046043513370100F940A840801900D387
:103280000131002B02D1A2420AD2F0BD013000D39D
:103290000131121BFAD2013BF8D1A24200D2F0BD9B
:1032A000013000D30131121BF7E7F0B51C0C00D040
:1032B00080E00CB400251C0A04D11B02160E334317
:1032C000120208351C0B04D11B01160F33431201E7
:1032D00004359C0B04D19B00960F334392000235BA
:1032E000DC0B02D192185B4101351C009718644138
:1032F0000134464F7C66464C3C660E0CFFE7FFE708
:10330000FFE7C0463C6F6643360C7703BE4697B274
:103310007743C01B00D20139C01B00D201399FB2D4
:103320007743C91BC91B170C77437E04FF0B801B17
:10333000B941CE086643360C0C2D33DBB644120B74
:103340001F053A431B0B97B27743C01B00D20139CC
:103350009FB27743C91B170C77433E043F0C801B79
:10336000B941860D8F023E43664329277F1BFE40ED
:103370000C3D7746AF40BF1930BCA2B2ABB272432E
:103380007343801A9941220C7243130C1204801A61
:10339000994102000B000137001BA941F9D2781EA8
:1033A0000021F0BD0C277F1BFE4077467F0BAF400E
:1033B000FF19E0E700245D1C07D0144F7D663966D5
:1033C000FFE7FFE7FFE7FFE73C6F95B29EB265437B
:1033D0006643401BB141150C1E0C65436643360421
:1033E0002F0C3E432D04401BB141994204D20200F0
:1033F0000B0020000021F0BD01D19042F7D3801ACC
:10340000994101349942F2D3F6E70000000000D060
:10341000FFFFFFFF48404140484018B41B4B5B682A
:10342000FC46019308BD04DFD336001018B4174BD7
:103430001B68FC46019308BD00DFDD360010944692
:10344000134A926F920809D2624618B40F4BDB6898
:10345000FC46019308BD0CDF953900100C4AF0B50D
:10346000146E556E576F166F6246FFF7EEFF084AEF
:103470001466556657671667F0BD18B4034B9B6812
:10348000FC46019308BD08DF39380010E81200201F
:10349000000000D0FFB550404240504059404B40E2
:1034A000594000E0FFB5154F4C00640D03D0BC42FD
:1034B00004D10C0314D80020090D09055C00640D2B
:1034C00003D0BC4204D11C030AD800221B0D1B05EB
:1034D00001264B4009D44B4003D58B4200D1824298
:1034E000FFBD9942FCD19042FFBD0B43DB18034363
:1034F0001343F5D0C9434918FFBD0000FF07000082
:1035000000B5FFF7CFFF804100BDC04600B5FFF713
:10351000C9FF01D9002000BD012000BD00B5FFF7A3
:10352000B9FF01D9002000BD012000BD00B5FFF7A3
:10353000B1FF804100BD012040054A00121804D8A7
:103540005A00121801D8002070470120704700006F
:103550000021002805D17047C1174840401AFAD011
:10356000C90713B5064B1B6898470CBC441CA24006
:103570001005120B0349091B09051943114310BD1E
:10358000602000201F04000010B54C00620D802355
:10359000D218DB00D21A5B057E2A10DD9E3A13DAC0
:1035A000CC170903490819435242D1406400013441
:1035B0001532202A05DAD0400843604310BD0020B0
:1035C00010BD0846604310BDC80FC018013810BDBB
:1035D00018B4044B5B6AFC46019308BD24DF453BED
:1035E00000100000E812002018B4044B5B6EFC468B
:1035F000019308BD64DFD53B00100000E8120020F5
:10360000132370B51D78012D19D014DD1E48FFF766
:1036100017FB06001D48FFF713FB1D4C80223100ED
:10362000200000F0A5FB022D06D01A48FFF700FB92
:10363000194B186070BD164C184BA364F5E7174B77
:10364000134C23606360A360E36023616361A36143
:10365000E36123626362A362E36223636363A36340
:10366000E36323646364A364E36423656365A36520
:10367000E36523666366A366E36623676367A36700
:10368000E367A364D1E7C0465344000053460000FB
:10369000E81200204C33000060200020A13600100A
:1036A00007B5604601880A0A0230DF2AFAD1C9B29A
:1036B000820804D3028840880004104300E00068B8
:1036C000014A5050039007BDE81200200FB403BC1C
:1036D0000CBCF0B50124E407634000E0F0B50C0D2C
:1036E000CF0F661E3605891B640503D3C9434042CC
:1036F00000D30131640D03D0661CF60A07D0E41B29
:1037000000207F00791C89078912803C24031D0D4D
:10371000DF0F6E1E36059B1B6D0503D3DB43524244
:1037200000D301336D0D03D06E1CF60A07D0ED1BDC
:1037300000227F007B1C9B079B12803D2D032F1BCB
:10374000661B58D4A446202E46DA20371400BC400D
:103750001D00BD40F24033412A4380185941CB0F30
:1037600005D0C943C04300226442504151416246E2
:103770004D0D28D10D0D07D100281FD0241940412F
:103780004941013A0D0DF9D0640006D3013000D350
:103790000131002C01D140084000013A0BD4941CA7
:1037A000E40A04D112051144DB071944F0BDD9071E
:1037B000204B194300E0D9070020F0BD0029DDD1DE
:1037C000002CDBD1F0BD0132C6074008CD072843ED
:1037D0004908002EE1D0D9E73C2E29DA203E4037B7
:1037E0001400BC4000D00124F24014431A00BB4036
:1037F0001C43D317ACE7AC46202F08DA2036040070
:10380000B4400D00B540F84039412843A5E73C2FAE
:103810000CDA203F40360400B44000D00124F840C8
:1038200004430800B1400C43C117EAE71000190037
:10383000002494E70000F07FF0B50C0D661E3605FD
:10384000891BE60A6405640D02D0651CED0A04D0EC
:10385000002001210905803C2403A4461C0D671E9D
:103860003F05DB1BE70A6405640D02D0651CED0A09
:1038700004D0002201231B05803C240377406444CC
:1038800097B484B296B27443070C7E43150C6F4311
:1038900080B26843361802D3012000043F18300478
:1038A000350C00197D41844688B29AB250430C0C05
:1038B00062431F0C7C438EB27E43921902D30126D1
:1038C0003604A4191604170C3618674101BC81B2DE
:1038D0009AB25143040C62431B0C5C4380B25843C0
:1038E000121802D30120000424181004130C4018ED
:1038F00063412D185E410020474106BC88B293B257
:1039000058430C0C6343120C544389B251435B1867
:1039100002D301210904641819041A0C0918624120
:103920006D1856410020474118BCF902720D114331
:10393000F0026A0D1043ED020A0D03D16D194041EA
:103940004941013B124E9B1B7600B3420ED26D00E3
:1039500007D30130002671416646354301D1400846
:1039600040001B05C918E4072144F0BD0BDA013300
:1039700006D1013004D101314F0D01D04908F2E7E1
:10398000E1070020F0BD013631050020EBE7000023
:10399000FF030000F0B51C0D671E3F05DB1BE70AA7
:1039A0006405640D02D0661CF60A04D000220123CF
:1039B0001B05803C2403D0252D060026F6432E66E9
:1039C0001E096E66CE0FF619B44649004F0D02D09F
:1039D0007E1CF60A03D000200021403F3F033E1B1F
:1039E000B600B444013F7F05C91B49082E6F01365C
:1039F00076089C02950D25437543ED137543AD1371
:103A000001356D10F603761B0CB4CC02450D2C432A
:103A1000A2B2B3B25A43270C7B43350C6F43A4B216
:103A20006C431B1902D3012424043F191C041D0CF0
:103A3000A4187D4124196D41009A91B2ACB2614342
:103A4000170C7C432B0C5F4392B25A43A41802D349
:103A500001221204BF182204230C52187B41019C3E
:103A60006C431B19520ED9010A434401A01A81B2BA
:103A7000B2B2514303145A43360C734387B27743AF
:103A8000D617D21900277E4136049B191704160C4D
:103A90007F185E417316ED18F301002680337541DF
:103AA000A90F06D16400690AE8055B0A184309D228
:103AB0002FE00422944480337541A90AA8059B0A8B
:103AC000184326D3404149412404009A019B0D002C
:103AD0005543641B4343E41A95B286B27543170CF1
:103AE0007E43030C5F4392B25A43B61802D30122BD
:103AF0001204BF183204330C52197B4152429C41CC
:103B0000002C02D40022013051414008CA07104362
:103B1000490802B06246D7079210084BD218084BEA
:103B20009A4203D212058918C919F0BD0020002A53
:103B300001DC3900F0BD01331905F5E7FD03000094
:103B4000FE070000002200B5203200F004F8080053
:103B500000BD000000220B150AD410B5944600F0F9
:103B600079F81414013400DA0021CB17144C2047E3
:103B70000020002170476244343A0CD40C2A07DA42
:103B800004009140904052422032D440214310BD65
:103B9000D843D94310BD203207D40C46944052423A
:103BA00020321141D040204310BD0800C9172032F7
:103BB00003D452422032104110BD1800190010BD2C
:103BC000773B001000210A00002104E000210A00D8
:103BD000C11704E00022002306E0C0460022CB17F4
:103BE00058405940C01A994130B5184CA21A0029C2
:103BF00003D1010010D00020203A4C1512D104D27C
:103C0000013A001849414C0DFAD3114CA24204D29A
:103C100012058918DB07C91830BDD243520D0020A8
:103C20000021F5E703D4013A00184941FBD50B32D6
:103C30004405C00A4D052843C90A640003D0002486
:103C400060416141E1E7E0D34408F8E73204000055
:103C5000FE0700000A0DCC0F531E1B05C91A5205A2
:103C600003D3C943404200D30131520D03D0531C4A
:103C7000DB0A07D0121B00206400611C890789122F
:103C8000803A1203014BD21A70470000FF03000074
:103C900051434343C9188C46110C83B24B4310B4B3
:103CA000040C614392B280B2504362431C041B0C6B
:103CB000001910BC59411304120CC0185141614441
:103CC00070470000132310B512481C78FEF7B8FFA8
:103CD0000100012C0AD003DD80220F4800F048F8D3
:103CE0000E48FEF7A5FF0E4B186010BD0A4C54227B
:103CF000200000F03DF80B4B6365A365E365236688
:103D00006366A366E36623676367A367E36723626B
:103D1000E361E5E753460000E81300204C33000060
:103D200060200020293D001007B5604601880A0A7E
:103D30000230DF2AFAD1C9B2820804D3028840884F
:103D40000004104300E00068014A5050039007BD92
:103D5000E813002001480421014B184710110020EE
:103D6000512C0010014B1B68184700001011002057
:103D7000014B5B6818470000101100209A4200D2E6
:103D8000885470477047C046F8B557464E4645467A
:103D9000DE46E0B599460A9B07009A460D9B884689
:103DA000934615000B9E9B0710D10C9B9E420DD293
:103DB0009D1B14000E005D4422004B46013431006F
:103DC0002020B847A542F7D1B0460B9E002E27D041
:103DD000444675195346AA1B013E985D21004B4687
:103DE000B847002EF6D123002C0098460D9B9B0768
:103DF0000FD55B46E51A0C9BAB420AD9464698465E
:103E000022004B46310020200135B8470134A84537
:103E1000F6D82000F0BCBB46B246A946A046F8BD85
:103E20002C00E3E7F0B54F464646D646C0B584B011
:103E300098460EAB1B78129F994694460D9C109B9A
:103E4000119EBA0725D4002E4BD19C4200D3BFE06F
:103E500001223A4092461F2C00D9B8E00C9A551E18
:103E6000302201E0202C03D001342A55A342F9D896
:103E70005246002A0DD0A6420BD9202C44D00C9AD1
:103E8000551E302201E0202C3ED001342A55B44288
:103E9000F9D1FA064DD57A053FD4002C39D10F9BC4
:103EA000102B00D179E00F9B022B00D18AE0302348
:103EB0000C9A012413704B46002B3FD02D230C9AF3
:103EC000135501340C9B62460093039743460296B8
:103ED0000194FFF759FF04B0E0BCBA46B146A846CA
:103EE000F0BD012215003D40AA463A422FD04A4675
:103EF000002A02D10C323A4200D0013E9C42BAD292
:103F00001F2CABD9202E27D92024FA06DAD57A0522
:103F100003D4A3422DD0A6422BD00F9B102B32D01E
:103F2000022B20D0202CCDD030220C9B1B191A70D4
:103F30000134202CC6D04B46002BBFD17B070DD4BB
:103F40003B07BFD520230C9A13550134BAE79C4296
:103F50009FD21F2C00D881E720249AE72B230C9AAC
:103F600013550134AEE7202CACD00C9B1B19013447
:103F70003AE0631E012C92D00F9A102A2AD0022A0E
:103F80002FD01C00D0E7BB060ED4202C9AD00C9B5F
:103F90001A19013478231370C4E7BB060DD47823B3
:103FA0000C9A01241370BFE7202C00D18AE7582215
:103FB0000C9B1B191A700134B4E758230C9A012486
:103FC0001370B1E70C9A603301241370ACE720241E
:103FD00000265EE7023CBA06E9D40C9A12191C00CE
:103FE000D8E70C9A9246534462221A709AE7C04668
:103FF00010B5002800D110BD01F006FBFBE7C0465C
:104000000B0010B5002802D049681B68984710BD06
:10401000F0B5DE4657464E464546E0B59BB09B465A
:10402000249B89469846259B0B900C92404642461D
:1040300019009A46FFF77FFA002800D0D8E0012245
:1040400040465146774B5242FFF770FA002800D0A5
:10405000CEE0012240465146734B5242FFF750FAE0
:10406000002800D0C4E00022002340465146FFF75C
:1040700047FA002800D0B9E1424653460A92099314
:104080008023289ADB001A400E92289A1A4201D106
:10409000062326930A9A099B1600134300D0C7E013
:1040A000289B002500261B0500D49BE100230D93CF
:1040B000269A0D9B9A4200DC9FE1D01A431E26935C
:1040C0008023289ADB001A430023002728920D93AF
:1040D000279B0024BB4200D9DC1B0223289A1A40EC
:1040E0000E92289A134203D07B427B415B421C40D4
:1040F0000D9B002B07D00A9809992A003300FFF77F
:104100009EF90A9009910022002340465146FFF78C
:10411000F7F9002805D080200006844609996144FB
:104120000991289A414B0B9D13400493269B0A9AB0
:104130000293099B03940092019349465B46280031
:104140000C9A00F08BF90400002F62D0289B22000B
:1041500098061F23C0179843631C984649465B4640
:104160006530A8470D9B0025DA179C18DB0F9A468F
:104170005440013F01E0202D13D00AAA94461F238A
:10418000200063440A2101355E19FEF70BFF303130
:10419000317020000A21FEF705FF26000400092ED9
:1041A000E9D805230693002304930A330393534667
:1041B00005970B9F029312AB009342465B4649461C
:1041C00038000195FFF72EFE0E9B0400002B20D037
:1041D0000C9BC51A279BAB421BD91E0022005B46D5
:1041E000494620200135B8470134AE42F6D810E0E8
:1041F000289B42460493279B49460393269B0B9892
:1042000002935346009201935B460C9A00F026F904
:10421000040020001BB0F0BCBB46B246A946A04635
:10422000F0BDC046FFFFEF7FFFFFEFFFFFF7FFFF8F
:10423000734B099F9C467800400D6044FFF78CF952
:10424000704A714BFFF719F9704A714BFFF7EEF89E
:104250003B03704A1B0B1A4304000D003000110091
:104260006D4B0022FFF7D9F86C4A6D4BFFF705F94B
:1042700002000B0020002900FFF7D8F8FFF784F9AF
:104280000D90FFF769F9674A674B04000D00FFF7CF
:10429000F4F80022654BFFF7C9F8FFF775F9644A97
:1042A0000600644B20002900FFF7E7F80400300007
:1042B0000D000F96FFF750F95F4A604BFFF7DDF8EE
:1042C00002000B0020002900FFF7A7F802000B00F6
:1042D00006000F00FFF7D1F8320004000D003B008C
:1042E00030003900FFF7A2F8002210901191544BD2
:1042F00020002900FFF7A3F80022524BFFF796F8A1
:1043000002000B0020002900FFF799F800224E4B15
:10431000FFF78CF802000B0020002900FFF78FF850
:104320000D008021040032003B000020C905FFF78A
:1043300074F802000B0020002900FFF777F8020054
:104340000B0010981199FFF77AF80022314BFFF714
:104350006DF83E4B0F9C9C46644400222305FFF7FA
:104360008CF805000E0002000B000A980999FFF76F
:10437000C7F800280AD00D9B2800013B31000D939F
:104380000022304BFFF75BF805000E00C6270D99A1
:104390002B0063318F42BF4128997F4204370905C2
:1043A00000D495E6334300D182E6099C284A2100D7
:1043B000284B0A98FFF7B2F8002808D00022210005
:1043C000254B0A98FFF79CF8002800D070E6269B42
:1043D000002B00D17CE60E9B5A1E9341269AD31ADD
:1043E000269375E6002304270D9371E643460A934E
:1043F00080231B065344099342E6002326935FE67D
:1044000001FCFFFFFB799F501344D33FB3C8608B7F
:10441000288AC63F0000F03F0000F83F61436F6309
:10442000A787D23F71A379094F930A400000E03F6C
:104430001655B5BBB16B0240EF39FAFE422EE63F8E
:1044400000002C400000244000001840FF03000042
:104450002D431CEBE2361A3F80842E41F0B54E46C8
:10446000DE4657464546E0B597B09946209E219FC7
:10447000229B8346984607910C923B003200300005
:104480003900FFF758F8002800D0A9E101223000D8
:104490003900CA4B5242FFF733F8002800D0E1E060
:1044A000012230003900C64B5242FFF73FF8002886
:1044B00000D0B7E0002230003900C24BFFF736F8D9
:1044C000002800D099E0002230003900BE4BFFF7F1
:1044D00017F8002800D090E00022002330003900B7
:1044E000FFF70EF8002800D0B1E000230D93249BC5
:1044F0005B0501D40623984608AB9C46172200248E
:1045000030234146624404E0013413550139202C24
:1045100001D00929F8D8884630003900FFF734F86F
:104520004346DA00A94B05009B181A685B6808929D
:104530000993FFF711F802000B0030003900FEF775
:104540006CFF089A099BFEF798FF0A900B91FFF702
:104550003FF88246FEF7FCFF02000B000A980B9919
:10456000FEF75BFF00229A4B0A900B91FEF7DEFFED
:10457000002800D1C0E001239C46E2445046FEF7EB
:10458000E7FF02000B0008980999FEF7BFFF00281B
:1045900002D000239A4601354346002B6AD008AB6F
:1045A00017269C4608956644554614E001235B4255
:1045B00043440A2128009A46FEF7F4FC01343031C6
:1045C0003719397028000A21FEF7ECFC092D00D8B4
:1045D000D0E0D0460500202CE8D10EAB984603234E
:1045E000249A1340012B00D196E02023249A0193B2
:1045F0000392239A434602921EE0249B584604935A
:10460000239B00960197039343460C9A02930799C4
:104610004B46FFF7FDFC17B0F0BCBB46B246A946BF
:10462000A046F0BD249B5B070ED40322694B24995E
:104630000192039123990291009358464B460C9A9C
:104640000799FFF7A1FBE6E70422634BEFE73B0086
:10465000320000200021FEF7E0FE012306000F00DB
:104660000D9344E7249B0393239B0293042301931C
:104670005A4BE1E72800FEF76FFF02000B00300005
:104680003900FEF7CAFE524B002206000F00FEF76B
:1046900037FF0EAB984600280AD1002230003900BF
:1046A0004B4BFEF743FF002802D1EB0700D5013545
:1046B000202C94D008AA94461723280063440A218A
:1046C00001341E19FEF746FC3031280031700A21F2
:1046D000FEF740FC051EEBD10323249A1340012B67
:1046E0001BD0202C00D180E70D9B002B35D02D2234
:1046F0004146631C0A5579E700220A980B99344B0E
:10470000FEF7FEFE002800D046E75346002B51D1AD
:1047100001239C46E2443FE72024239B002BE0D06A
:104720000D9B002B03D1249A0C33134202D0239B00
:10473000013B2393239BA342D3D908AB9C4617226A
:1047400030236244202C00D14FE7239901341355C4
:104750008C42C6D0202CF8D147E7249B5B0724D499
:10476000249A2300120700D440E720224146013357
:104770000A553BE75746089D202C00D12DE7220023
:1047800030214046002F09D00132B154202A00D1F7
:1047900023E7D3431B191B18002BF5D10EAB98460A
:1047A0002E234146541C8B5482E72B224146631C26
:1047B0000A551BE7DB0700D4EEE6A9E7FFFFEFFF92
:1047C000FFFFEF7F65CDCD4165CDCDC1809A001053
:1047D0000000E03F84980010889800109498001022
:1047E000249B0393239B029303230193004B23E712
:1047F00090980010F0B5DE464E4657464546E0B567
:104800009FB01C00289B91460993C94AC94B8B460F
:1048100008901A60002900D118E2002320789A46F7
:10482000002800D11AE226001D005C460AE02A009A
:104830006F1C4B46089D2100A8473D00013630788B
:10484000002870D02528F2D110239B46083B9A46B9
:10485000043B9846023B00219C46721C10781600CF
:104860000300203BDBB2102B03D8B34F9B00FB5857
:104870009F460300303B092B32D900230A932A2894
:1048800068D0002398462E283ED00300683BDBB258
:10489000122B1CD8A94A9B00D3589F4601230132F2
:1048A0001943DBE7634601321943D7E74346013238
:1048B0001943D3E75B4601321943CFE75346013230
:1048C0001943CBE780235B0070781943013603005E
:1048D000253BDBB2532BAAD8994A9B00D3589F465D
:1048E00000270300B800C01901364000C018337813
:1048F00030381A00303A0700092AF3D90A90180014
:10490000002398462E28C0D180237078DB001943FD
:104910000300303B721C092B00D8A1E12A2800D1EA
:10492000B2E11600B1E7A346AA462C00D14503D850
:1049300001235B424B449A464B465246594600205F
:10494000089DA84720001FB0F0BCBB46B246A94650
:10495000A046F0BD099B40CB0A96002E03DB5078A1
:104960000993561C8DE72838014370420A90099339
:104970005078561C85E7782800D1DFE1582800D10F
:104980004CE26F2800D14FE3622801D100F030FCE7
:1049900010230A009A430B92692801D000F0A9FC69
:1049A0000A230C934B0500D5D0E10B9A802311000C
:1049B0009B0019408B461A4200D0A1E280231100CF
:1049C0005B0019408A461A4200D0B6E313005B062A
:1049D00000D5EDE2130009991B0601D400F076FC26
:1049E00008C91BB2D8171A18424092B209919346CF
:1049F000DA0F1292002B09D1802310220B99DB00D1
:104A00000B4091430B91002B00D0E4E20B9A612301
:104A1000920600D541230EA91F228C46DBB26244C8
:104A20000A3B5F461395A34655460C9CB2460D9330
:104A300016000AE03033DBB201357355A74200D2CD
:104A4000EDE2202D00D1EAE2070021003800FEF758
:104A5000A9FACBB20929EDD90D9A94466344DBB289
:104A6000EAE780239B007078194301362FE77078BE
:104A7000682800D1CDE180230136194327E77078FB
:104A80006C2800D1BFE180235B00194301361EE78B
:104A9000462800D19BE10722099B049107339343E9
:104AA0000A9A19000392424602920CC90898009291
:104AB000019309912A004B462100FFF7CFFC0136F4
:104AC0000500BCE62A006F1C4B46089D21002520EE
:104AD000A84701363D00B2E68B0700D4ADE1099B43
:104AE0002A009A466B1C9846534601CB21009A46F1
:104AF000089F4B46C0B2B8470A9B9C466544012BB1
:104B000000D886E2089B4746B04626004C469946A8
:104B10003A002300013731002020C847AF42F7D1C7
:104B2000A1465346340046460993013687E6C046FF
:104B3000F5470010202000209C980010E0980010FD
:104B40002C990010099B04CB9B4643460992002BED
:104B500000D1C6E013789C46002B00D1BDE343464C
:104B6000013B099A0133D0180A9F130001E08342E8
:104B700003D05A780133002AF9D1099A0A979B1A6F
:104B80000B9380230A00DB001A400C92194204D0D8
:104B90000B9B434501D943460B9302231A000A405D
:104BA0000D920B4200D187E16046002800D168E1F8
:104BB0000C9B002B00D10DE1A844C246099B57462F
:104BC0005B1B9846089BB2462A0026004C46994635
:104BD00009E023003100551CC8474346585D0028B2
:104BE00000D126E12A009742F3D1A1463D003400CE
:104BF00056460D9B002B00D043E15B4601360993DE
:104C00001DE6099B1A0008CA9246002B48D02122B3
:104C100011438B460EA884461F216144099500224A
:104C20000F27A4460D0002E0202A0CD00B003C0008
:104C30001C4020003730092C00D807380132A85416
:104C400019090F2BF0D86446099D32E0DC4B20781F
:104C5000089300239A46002800D0E4E5002465E686
:104C6000434606000A9F9800C01801324000801990
:104C70001678030030003038303B0928F3D9300073
:104C8000984616000A9700E6099B023604CB904628
:104C9000D2434046D2171040804609933078F4E55D
:104CA0001022080090431132104383460022490528
:104CB000B0D55B460693082305934346049310231F
:104CC00003930023029316AB019200932A004B46F4
:104CD00021000898FFF7A6F853460500013609930E
:104CE000ADE513789C46002B00D1F7E202235B422E
:104CF00037E7202302009A43472A04D180231B016F
:104D0000194302239843452801D120231943072240
:104D1000099B0491073393430A9A19000392424670
:104D200002920CC908980092019309912A004B46FF
:104D30002100FFF76DF90136050080E510230C9383
:104D40000C230A009A430B924B0503D501230B9ABF
:104D50009A430B92692800D127E6642800D124E603
:104D60000B9A802311009B0019408B461A4200D0F9
:104D700066E1802311005B0019408A461A4200D088
:104D800039E213005B0600D53CE113001B0600D49A
:104D9000A6E2099B04CB1204120C934609935B46CE
:104DA000002B00D09AE10B9A1033110099430B911C
:104DB000520500D492E100239A460B9B06930A9B6E
:104DC0000593434604930C9B039300230CE120239B
:104DD000194360E6099B0A9A5B1B98464B4691462D
:104DE0001F00B2462600089C2A003B003100A04765
:104DF00043460135585D0028F6D14A463400B9468D
:104E000056460A92F5E6C0239B00B0781943023655
:104E10005DE5C023B0781943023658E50C230A003B
:104E20009A4314331A43103B0B920C934B058DD4C9
:104E300096E7A14634005646DBE60A9A012A00D8D6
:104E400053E26B1E9F18089BB04626004C469946BD
:104E50002A002300013531002020C847BD42F7D188
:104E6000A14634004646099B3A0001CB21009846F2
:104E70007D1C4B46089FC0B2B84743460136099394
:104E8000DDE40B9B0A9AA8469A4200D8B5E6944600
:104E90006544ED1A089B4746B04626004C469946A5
:104EA0003A002300013731002020C847AF42F7D134
:104EB000A14634004646A0E60B9A0A99531C91423B
:104EC00000D814E24B199B1A1F00089BB24626001B
:104ED0004C4699462A002300013531002020C8475E
:104EE000BD42F7D10A9BA14601330B93099B3400C5
:104EF0001B7856469C466046002800D058E67CE663
:104F00000722099B07339343013294469C4462462F
:104F10005F6809921A68FB17109311931098119902
:104F2000030053400E930B007B400F9394460E9A60
:104F30000F9B121A8B410E920F93FB0F6246129336
:104F400000233A439B463DD00B9A6123920600D53D
:104F500041230022DBB20EA90A3B8C4692460D93F8
:104F600043461F3262441395159655460E9E0F9F79
:104F7000A24690460C9C14930CE03032D2B24346C9
:104F800001355A55BB4500D18AE1202D00D18AE177
:104F900006000F002200002330003900FEF740F821
:104FA000D2B2092AE9D90D9B9C466244D2B2E6E707
:104FB000FF23099904C913401A00099117E5C04657
:104FC000853D00100B9A1033110099430B91520547
:104FD000BAD500239A460B9B06930A9B059343463A
:104FE00004930C9B0393129B02935346019316ABBD
:104FF0002A00009321004B460898FEF713FF013664
:1050000005001CE4FF22099B02CB11408B4609934B
:10501000C5E65346454609930136FFF710FC564650
:105020005C46AA46139DD6E708230C930B910B9977
:10503000642800D084E60B9B5B0500D586E6B4E4CB
:105040000722099B07339343013294469C446246EE
:1050500009921A685B6810009B4613005A46134376
:1050600007D10B9A1033110099430B91520500D5CB
:10507000A1E60B9A6123920600D541230022DBB200
:105080000EA90A3B8C4692460D9343461F3262445A
:105090005F461295A34655460400B24690460C9EC4
:1050A00013930DE03032D2B2434601355A550023F6
:1050B000BB4200D100E1202D00D100E104000F002F
:1050C0003200002320003900FDF7AAFFD2B2092ADE
:1050D000E8D90D9B9C466244D2B2E5E70B9A612366
:1050E000920600D54123DBB20EA90A3B1F228C4653
:1050F0000D93230062445C461295170055469B466B
:10510000B2460C9E08E03033DBB201357B55B44229
:105110000ED3202D0CD0040031002000FDF742FFFB
:10512000CBB20929EFD90D9A94466344DBB2ECE780
:1051300056465C46AA46129D3FE6099B1A0008CADD
:10514000D91713925A184A409246DA0F1292002B3E
:1051500008D1802310220B99DB000B4091430B9167
:10516000002B2BD10B9A6123920600D541230EAA66
:105170001F279446DBB20A3B0D9567445D460993B1
:10518000A3465446B2460C9E08E03033DBB20135EC
:105190007B55B4420ED3202D0CD0040031002000EA
:1051A000FDF700FFCBB20929EFD9099A9446634471
:1051B000DBB2ECE756465C46AB460D9D0B9B2A00E6
:1051C00006930A9B21000593434604930C9B089881
:1051D0000393129B013602935B46019316AB009337
:1051E0004B46FEF71FFE139B05000993FFF727FBB5
:1051F00002230C931AE7099B04CB92461293002AD0
:1052000008D1802310220B99DB000B4091430B91B6
:10521000002B2BD10B9A6123920600D541230EAAB5
:105220001F279446DBB20A3B0D9567445D46099300
:10523000A3465446B2460C9E08E03033DBB201353B
:105240007B55B4420ED3202D0CD004003100200039
:10525000FDF7A8FECBB20929EFD9099A9446634419
:10526000DBB2ECE756465C46AB460D9D0B9B2A0035
:1052700006930A9B21000593434604930C9B0898D0
:105280000393002302935B46019316AB00934B46B6
:10529000FEF7C8FD129B050009930136FFF7CFFA10
:1052A000B44200D871E6149B54460E960F97AA4656
:1052B0009846159E139D8EE6A64200D8FBE6139BEA
:1052C00056469846AA465C46129D76E508C9D81708
:1052D0001A1842400991FFF78AFB00230B9350E410
:1052E000099B04CB9346099359E52F00BBE50B932B
:1052F00001E6063B0C939AE60CB410B584B006ACFC
:1053000008CC0A000094010004480394FFF772FAE5
:1053100004B010BC08BC02B01847C0467D3D001068
:1053200000B585B00391012102900093034813005A
:105330004A4202A9FFF75EFA05B000BD0140001025
:1053400010B5094A0300146884B0002C08D001226B
:1053500000910648524203A9A047012004B010BDA5
:1053600000F09EF90020F9E720200020F13F001016
:1053700000BEFDE710B5FFF7FBFFC04670B5FDF7B7
:10538000B9FC074D074EB54209D20024013E761BF9
:10539000B60808CD984723000134B342F9D170BD57
:1053A000F4820010FC820010030010B50800110008
:1053B0001B68984710BDC046F0B546464F46D646D6
:1053C000C0B5437D80460E001700002B46D0002A52
:1053D0003FDD4B1E9946244B0125002400209A46B0
:1053E0000DE04B461B5D0D3B5A425341325DDBB233
:1053F0000A2A0BD02B00013401359F421ADD002C04
:10540000EFD14346325D1B7D0A2AF3D1002BF1D147
:10541000A04204DA4346211A1B68301898474346D5
:1054200050461B6802219847013428002B000135A3
:105430009F42E4DC874204DD4346391A1B6830187A
:105440009847F619013E33780D3B5A425341424684
:105450001375E0BCBA46B146A846F0BD036811001A
:1054600030009847F5E7C046D09A0010F0B5C64620
:105470000C000968060000B5802906D04B1C23608B
:105480006418267180BCB846F0BD0F4B1D68002D16
:1054900016D0231D98460D4F02E02D69002D0FD028
:1054A0002B68002BF9D03B68002B01D0AB42F4D124
:1054B000280041462268FFF77FFF2D69002DEFD1BC
:1054C00001230021DBE7C046141C00201C1C002027
:1054D000F0B5DE4657464E464546E0B585B0170066
:1054E0001C0006000D00FDF7F1F90023314A1218E7
:1054F0004B41002B59DB304908008A4602F0B4FECC
:1055000001906B1C03D1300002F000FE0500002C5E
:1055100026D12A4B98462A4B1C68002C15D0002F08
:1055200021D1284F02E02469002C0ED02368002BE3
:10553000F9D03B68002B01D0A342F4D120002A000F
:105540003100C0472469002CF0D1019B002B28D1E9
:10555000280005B0F0BCBB46B246A946A046F0BD47
:10556000194B9846D7E7174B994602ABDF1D0A2324
:105570009B4602E02469002CE7D02368002BF9D079
:105580004B461B68002B01D0A342F3D12A00310007
:105590002000C0475B460122390020003B70C04715
:1055A000E8E7504602F020FED2E70122074B5242C4
:1055B000A1E7C04640420F0058110020A953001037
:1055C000141C00201C1C0020B9530010FFFFFF7F9B
:1055D0000A4A1368002B05D10CE01A001B6910322F
:1055E000002B07D09842F8D1002902D1036913603B
:1055F000016170470029FCD01060FAE7141C0020FC
:1056000010B500F003FB10BDF0B5CE46474680B59F
:1056100083B06B460600DD1D2870FDF757F90023A7
:105620001A4A12184B41002B2BDB194908008846F7
:1056300002F01AFE174B81461C68002C14D0164F3E
:1056400002E02469002C0FD02368002BF9D03B68BE
:10565000002B01D0A342F4D1200001222900FFF742
:10566000ABFE2469002CEFD14B46002B05D1300056
:1056700003B0C0BCB946B046F0BD404602F0B4FD30
:10568000F5E70122054B5242CFE7C04640420F00EA
:1056900058110020141C00201C1C0020FFFFFF7F5D
:1056A00070B5040002F032FD012301000500012263
:1056B0002000FFF70DFF084B1C68002C06D0636824
:1056C000002B05D098472469002CF8D1280070BD24
:1056D0002469002CF3D1F9E7141C0020F0B5CE4664
:1056E000474680B5A5B004000D00FDF7EFF8002394
:1056F0002A4A12184B41002B49DB294E300002F098
:10570000B3FD00230700039322002B00254803A9C3
:10571000FFF706FE039B8046002B14D1224B1C682A
:10572000002C06D06368002B0BD098472469002C0E
:10573000F8D1002F27D1404625B0C0BCB946B046AD
:10574000F0BD2469ECE7184B1D689946002D22D066
:10575000164C02E02D69002D11D02B68002BF9D0DA
:105760002368002B01D09D42F4D1039B28001A002E
:1057700004A90193FFF720FE2D69002DEDD14B46C2
:1057800003951C68CCE7300002F02EFDD3E7012220
:10579000074B5242B1E70395CBE7C04640420F00AA
:1057A000581100206D540010141C00201C1C0020F7
:1057B000FFFFFF7F0FB400B583B004A901C90191B9
:1057C000FFF78CFF03B008BC04B018477047C04611
:1057D0000022014B1A707047862000204B79002070
:1057E000FF2B0BD18B79002B08D1CB79012B05D165
:1057F000082A03D98A78024B09301A707047C046CC
:10580000862000200120704710B5012909D11549D3
:105810005379107909781B0203430020994202D082
:1058200010BD0120FCE75378012B08D0022BF7D1E3
:10583000002064220021FDF7A7F90120F0E7D378CA
:1058400091781B021943DB0507D54A0A1000012392
:105850001A407E331940FDF71DFA01204A0A4042E2
:10586000F5E7C0468620002000487047F49A0010F3
:1058700070B5050014000120012909D153780020DA
:10588000012B05D1637912791B021343072B00D03A
:1058900070BD21002800024A9F3301F061FAF7E74A
:1058A000189B00100123037000487047D49A001021
:1058B00048780B788A780002184312041043962225
:1058C000CB7810B51B060343D200934200D010BD25
:1058D0000022012011004042FDF7DCF9024B186064
:1058E000024B19607047C0469C1B0020A01B002083
:1058F00010B5024B1878FCF7CBF910BD87200020BB
:10590000154B70B51A68002A22D0EFF3108172B6D9
:1059100010680028FCD0BFF35F8F00220F48596049
:1059200002701B68BFF35F8F1A6081F31088002438
:1059300000250B4E3078FCF79FF9002804D1002495
:1059400000252900200070BD3078FCF7A1F9F8E7A8
:10595000FA240025A400ECE72C2000208820002059
:105960008720002070B5040000200E0001F022FB0B
:10597000002835D0002001F033FB002830D0FCF7A0
:10598000A5FF0023184A12184B41002B24DB174DAA
:10599000280002F069FC002822D0002001F00AFB58
:1059A00000280BD1012000210324404200F00AFD11
:1059B0006442280002F018FC200070BD002001F0B5
:1059C0000FFB0028EED021003200002001F014FB74
:1059D000041EEED1033CECE70122054B5242D6E710
:1059E00003246442E8E7C04640420F0068200020DC
:1059F000FFFFFF7F10B5FCF769FF00230E4A121866
:105A00004B41002B13DB0D4C200002F02DFC002835
:105A10000CD001200021404200F0D4FC002001F015
:105A200035FB0028F5D1200002F0DEFB10BD01227D
:105A3000034B5242E7E7C04640420F006820002077
:105A4000FFFFFF7FF8B5DE46574680B505000C0026
:105A5000FCF73CFF0023364A12184B41002B5ADB5F
:105A6000344908008A4602F0FFFB002803D1C0BC7D
:105A7000BB46B246F8BD002001F09CFA00284ED08B
:105A80000026002C43DD2C4B9B4614E0A919002076
:105A900001F038FB070001200021404200F092FC99
:105AA000002001F0F3FAFCF711FF234BF619186000
:105AB0005960B4422BDD002001F046FBA71B020019
:105AC000B84200DD3A00002AE0D101200021404226
:105AD00000F078FC002001F0D9FA002001F06AFA09
